{
  "contractName": "KyberAgent",
  "abi": [
    {
      "constant": false,
      "inputs": [
        {
          "name": "_symbol",
          "type": "bytes32"
        },
        {
          "name": "_sources",
          "type": "address[]"
        },
        {
          "name": "_shares",
          "type": "uint8[]"
        }
      ],
      "name": "addShares",
      "outputs": [],
      "payable": false,
      "stateMutability": "nonpayable",
      "type": "function"
    },
    {
      "constant": true,
      "inputs": [
        {
          "name": "",
          "type": "bytes32"
        },
        {
          "name": "",
          "type": "uint256"
        }
      ],
      "name": "shares",
      "outputs": [
        {
          "name": "source",
          "type": "address"
        },
        {
          "name": "share",
          "type": "uint8"
        }
      ],
      "payable": false,
      "stateMutability": "view",
      "type": "function"
    },
    {
      "constant": false,
      "inputs": [
        {
          "name": "_kyberNetwork",
          "type": "address"
        }
      ],
      "name": "setKyberNetwork",
      "outputs": [],
      "payable": false,
      "stateMutability": "nonpayable",
      "type": "function"
    },
    {
      "constant": true,
      "inputs": [
        {
          "name": "dst",
          "type": "address"
        },
        {
          "name": "amount",
          "type": "uint256"
        }
      ],
      "name": "getExpectedRate",
      "outputs": [
        {
          "name": "expectedRate",
          "type": "uint256"
        },
        {
          "name": "slippageRate",
          "type": "uint256"
        }
      ],
      "payable": false,
      "stateMutability": "view",
      "type": "function"
    },
    {
      "constant": true,
      "inputs": [],
      "name": "owner",
      "outputs": [
        {
          "name": "",
          "type": "address"
        }
      ],
      "payable": false,
      "stateMutability": "view",
      "type": "function"
    },
    {
      "constant": false,
      "inputs": [
        {
          "name": "symbol",
          "type": "bytes32"
        }
      ],
      "name": "buy",
      "outputs": [],
      "payable": true,
      "stateMutability": "payable",
      "type": "function"
    },
    {
      "constant": true,
      "inputs": [
        {
          "name": "",
          "type": "uint256"
        }
      ],
      "name": "symbols",
      "outputs": [
        {
          "name": "",
          "type": "bytes32"
        }
      ],
      "payable": false,
      "stateMutability": "view",
      "type": "function"
    },
    {
      "constant": false,
      "inputs": [
        {
          "name": "newOwner",
          "type": "address"
        }
      ],
      "name": "transferOwnership",
      "outputs": [],
      "payable": false,
      "stateMutability": "nonpayable",
      "type": "function"
    },
    {
      "inputs": [
        {
          "name": "_kyberNetwork",
          "type": "address"
        }
      ],
      "payable": false,
      "stateMutability": "nonpayable",
      "type": "constructor"
    },
    {
      "anonymous": false,
      "inputs": [
        {
          "indexed": false,
          "name": "_symbol",
          "type": "bytes32"
        },
        {
          "indexed": false,
          "name": "_sources",
          "type": "address[]"
        },
        {
          "indexed": false,
          "name": "_shares",
          "type": "uint8[]"
        }
      ],
      "name": "OnAddShares",
      "type": "event"
    },
    {
      "anonymous": false,
      "inputs": [
        {
          "indexed": true,
          "name": "sender",
          "type": "address"
        },
        {
          "indexed": false,
          "name": "symbol",
          "type": "bytes32"
        },
        {
          "indexed": false,
          "name": "srcAmount",
          "type": "uint256"
        },
        {
          "indexed": false,
          "name": "destAmounts",
          "type": "uint256[]"
        }
      ],
      "name": "OnBuy",
      "type": "event"
    },
    {
      "anonymous": false,
      "inputs": [
        {
          "indexed": true,
          "name": "previousOwner",
          "type": "address"
        },
        {
          "indexed": true,
          "name": "newOwner",
          "type": "address"
        }
      ],
      "name": "OwnershipTransferred",
      "type": "event"
    }
  ],
  "bytecode": "0x6060604052341561000f57600080fd5b60405160208061137283398101604052808051906020019091905050336000806101000a81548173ffffffffffffffffffffffffffffffffffffffff021916908373ffffffffffffffffffffffffffffffffffffffff16021790555080600160006101000a81548173ffffffffffffffffffffffffffffffffffffffff021916908373ffffffffffffffffffffffffffffffffffffffff160217905550506112b6806100bc6000396000f30060606040526004361061008e576000357c0100000000000000000000000000000000000000000000000000000000900463ffffffff16806317dc9a2b14610093578063263d5f111461013a57806354a325a6146101b757806383b9f63e146101f05780638da5cb5b1461024d5780639c9a1061146102a2578063ccce413b146102be578063f2fde38b146102fd575b600080fd5b341561009e57600080fd5b6101386004808035600019169060200190919080359060200190820180359060200190808060200260200160405190810160405280939291908181526020018383602002808284378201915050505050509190803590602001908201803590602001908080602002602001604051908101604052809392919081815260200183836020028082843782019150505050505091905050610336565b005b341561014557600080fd5b610168600480803560001916906020019091908035906020019091905050610767565b604051808373ffffffffffffffffffffffffffffffffffffffff1673ffffffffffffffffffffffffffffffffffffffff1681526020018260ff1660ff1681526020019250505060405180910390f35b34156101c257600080fd5b6101ee600480803573ffffffffffffffffffffffffffffffffffffffff169060200190919050506107d1565b005b34156101fb57600080fd5b610230600480803573ffffffffffffffffffffffffffffffffffffffff16906020019091908035906020019091905050610870565b604051808381526020018281526020019250505060405180910390f35b341561025857600080fd5b6102606109b3565b604051808273ffffffffffffffffffffffffffffffffffffffff1673ffffffffffffffffffffffffffffffffffffffff16815260200191505060405180910390f35b6102bc6004808035600019169060200190919050506109d8565b005b34156102c957600080fd5b6102df6004808035906020019091905050611026565b60405180826000191660001916815260200191505060405180910390f35b341561030857600080fd5b610334600480803573ffffffffffffffffffffffffffffffffffffffff1690602001909190505061104a565b005b6000806000809054906101000a900473ffffffffffffffffffffffffffffffffffffffff1673ffffffffffffffffffffffffffffffffffffffff163373ffffffffffffffffffffffffffffffffffffffff1614151561039457600080fd5b600a84511015156103a457600080fd5b600a83511015156103b457600080fd5b825184511415156103c457600080fd5b600091505b6003805490508260ff16101561041a5760038260ff168154811015156103eb57fe5b9060005260206000209001546000191685600019161415151561040d57600080fd5b81806001019250506103c9565b600091505b83518260ff16101561048e57600073ffffffffffffffffffffffffffffffffffffffff16848360ff1681518110151561045457fe5b9060200190602002015173ffffffffffffffffffffffffffffffffffffffff161415151561048157600080fd5b818060010192505061041f565b60009050600091505b82518260ff161015610524576064838360ff168151811015156104b657fe5b9060200190602002015160ff161080156104ed57506000838360ff168151811015156104de57fe5b9060200190602002015160ff16115b15156104f857600080fd5b828260ff1681518110151561050957fe5b90602001906020020151810190508180600101925050610497565b60648160ff1614151561053657600080fd5b6003805480600101828161054a919061119f565b916000526020600020900160008790919091509060001916905550600091505b82518260ff16101561068f5760026000866000191660001916815260200190815260200160002080548060010182816105a391906111cb565b916000526020600020900160006040805190810160405280888760ff168151811015156105cc57fe5b9060200190602002015173ffffffffffffffffffffffffffffffffffffffff168152602001878760ff1681518110151561060257fe5b9060200190602002015160ff16815250909190915060008201518160000160006101000a81548173ffffffffffffffffffffffffffffffffffffffff021916908373ffffffffffffffffffffffffffffffffffffffff16021790555060208201518160000160146101000a81548160ff021916908360ff160217905550505050818060010192505061056a565b7f3c7f9e06efb391746fc774b03fac81d77af979064039fd908f000c4bfac8284c8585856040518084600019166000191681526020018060200180602001838103835285818151815260200191508051906020019060200280838360005b838110156107085780820151818401526020810190506106ed565b50505050905001838103825284818151815260200191508051906020019060200280838360005b8381101561074a57808201518184015260208101905061072f565b505050509050019550505050505060405180910390a15050505050565b60026020528160005260406000208181548110151561078257fe5b9060005260206000209001600091509150508060000160009054906101000a900473ffffffffffffffffffffffffffffffffffffffff16908060000160149054906101000a900460ff16905082565b6000809054906101000a900473ffffffffffffffffffffffffffffffffffffffff1673ffffffffffffffffffffffffffffffffffffffff163373ffffffffffffffffffffffffffffffffffffffff1614151561082c57600080fd5b80600160006101000a81548173ffffffffffffffffffffffffffffffffffffffff021916908373ffffffffffffffffffffffffffffffffffffffff16021790555050565b600080600160009054906101000a900473ffffffffffffffffffffffffffffffffffffffff1673ffffffffffffffffffffffffffffffffffffffff1663809a9e5573eeeeeeeeeeeeeeeeeeeeeeeeeeeeeeeeeeeeeeee86866000604051604001526040518463ffffffff167c0100000000000000000000000000000000000000000000000000000000028152600401808473ffffffffffffffffffffffffffffffffffffffff1673ffffffffffffffffffffffffffffffffffffffff1681526020018373ffffffffffffffffffffffffffffffffffffffff1673ffffffffffffffffffffffffffffffffffffffff16815260200182815260200193505050506040805180830381600087803b151561098757600080fd5b6102c65a03f1151561099857600080fd5b50505060405180519060200180519050915091509250929050565b6000809054906101000a900473ffffffffffffffffffffffffffffffffffffffff1681565b6000806000806109e66111f7565b6109ee6111f7565b60008060008034111515610a0157600080fd5b600260008b6000191660001916815260200190815260200160002098506000898054905014151515610a3257600080fd5b6000975060009650600095508880549050604051805910610a505750595b908082528060200260200182016040525094508880549050604051805910610a755750595b90808252806020026020018201604052509350600092505b60018980549050038360ff161015610b20576064898460ff16815481101515610ab257fe5b906000526020600020900160000160149054906101000a900460ff1660ff163402811515610adc57fe5b049150600082111515610aee57600080fd5b81858460ff16815181101515610b0057fe5b906020019060200201818152505081880197508280600101935050610a8d565b873403856001875103815181101515610b3557fe5b9060200190602002018181525050600092505b84518360ff161015610f7357600160009054906101000a900473ffffffffffffffffffffffffffffffffffffffff1673ffffffffffffffffffffffffffffffffffffffff1663809a9e5573eeeeeeeeeeeeeeeeeeeeeeeeeeeeeeeeeeeeeeee8b8660ff16815481101515610bb857fe5b906000526020600020900160000160009054906101000a900473ffffffffffffffffffffffffffffffffffffffff16888760ff16815181101515610bf857fe5b906020019060200201516000604051604001526040518463ffffffff167c0100000000000000000000000000000000000000000000000000000000028152600401808473ffffffffffffffffffffffffffffffffffffffff1673ffffffffffffffffffffffffffffffffffffffff1681526020018373ffffffffffffffffffffffffffffffffffffffff1673ffffffffffffffffffffffffffffffffffffffff16815260200182815260200193505050506040805180830381600087803b1515610cc157600080fd5b6102c65a03f11515610cd257600080fd5b505050604051805190602001805190508097508198505050600086111515610cf957600080fd5b600160009054906101000a900473ffffffffffffffffffffffffffffffffffffffff1673ffffffffffffffffffffffffffffffffffffffff1663cb3c28c7868560ff16815181101515610d4857fe5b9060200190602002015173eeeeeeeeeeeeeeeeeeeeeeeeeeeeeeeeeeeeeeee888760ff16815181101515610d7857fe5b906020019060200201518d8860ff16815481101515610d9357fe5b906000526020600020900160000160009054906101000a900473ffffffffffffffffffffffffffffffffffffffff16337fffffffffffffffffffffffffffffffffffffffffffffffffffffffffffffffff8d600080604051602001526040518963ffffffff167c0100000000000000000000000000000000000000000000000000000000028152600401808873ffffffffffffffffffffffffffffffffffffffff1673ffffffffffffffffffffffffffffffffffffffff1681526020018781526020018673ffffffffffffffffffffffffffffffffffffffff1673ffffffffffffffffffffffffffffffffffffffff1681526020018573ffffffffffffffffffffffffffffffffffffffff1673ffffffffffffffffffffffffffffffffffffffff1681526020018481526020018381526020018273ffffffffffffffffffffffffffffffffffffffff1673ffffffffffffffffffffffffffffffffffffffff1681526020019750505050505050506020604051808303818588803b1515610f1957600080fd5b6125ee5a03f11515610f2a57600080fd5b50505050604051805190509050600081111515610f4657600080fd5b80848460ff16815181101515610f5857fe5b90602001906020020181815250508280600101935050610b48565b3373ffffffffffffffffffffffffffffffffffffffff167f5404978a22b2ecade572d7df5c218c03caa67d6aa5c040cb907b0f7bd0dc3bc38b348760405180846000191660001916815260200183815260200180602001828103825283818151815260200191508051906020019060200280838360005b83811015611005578082015181840152602081019050610fea565b5050505090500194505050505060405180910390a250505050505050505050565b60038181548110151561103557fe5b90600052602060002090016000915090505481565b6000809054906101000a900473ffffffffffffffffffffffffffffffffffffffff1673ffffffffffffffffffffffffffffffffffffffff163373ffffffffffffffffffffffffffffffffffffffff161415156110a557600080fd5b600073ffffffffffffffffffffffffffffffffffffffff168173ffffffffffffffffffffffffffffffffffffffff16141515156110e157600080fd5b8073ffffffffffffffffffffffffffffffffffffffff166000809054906101000a900473ffffffffffffffffffffffffffffffffffffffff1673ffffffffffffffffffffffffffffffffffffffff167f8be0079c531659141344cd1fd0a4f28419497f9722a3daafe3b4186f6b6457e060405160405180910390a3806000806101000a81548173ffffffffffffffffffffffffffffffffffffffff021916908373ffffffffffffffffffffffffffffffffffffffff16021790555050565b8154818355818115116111c6578183600052602060002091820191016111c5919061120b565b5b505050565b8154818355818115116111f2578183600052602060002091820191016111f19190611230565b5b505050565b602060405190810160405280600081525090565b61122d91905b80821115611229576000816000905550600101611211565b5090565b90565b61128791905b8082111561128357600080820160006101000a81549073ffffffffffffffffffffffffffffffffffffffff02191690556000820160146101000a81549060ff021916905550600101611236565b5090565b905600a165627a7a7230582022ed9eefb3aabb8d8f2153e1f3c9e3603434b8b911dba32ce40ee3d83df96a3f0029",
  "source": "pragma solidity ^0.4.17;\n\nimport 'zeppelin-solidity/contracts/ownership/Ownable.sol';\nimport './ERC20Interface.sol';\nimport './KyberNetwork.sol';\n\ncontract KyberAgent is Ownable {\n\n    ERC20 constant ETH_TOKEN_ADDRESS = ERC20(0x00eeeeeeeeeeeeeeeeeeeeeeeeeeeeeeeeeeeeeeee);\n    uint constant MAX_UINT = 2**256 - 1;\n\n    KyberNetwork kyberNetwork;\n\n    struct Share {\n        ERC20 source;\n        uint8 share; // less then 100\n    }\n    mapping(bytes32 => Share[]) public shares; // sum of share equal 100\n    bytes32[] public symbols;\n\n    function KyberAgent(KyberNetwork _kyberNetwork)\n    public\n    { \n        kyberNetwork = _kyberNetwork;\n    }\n\n    function setKyberNetwork(KyberNetwork _kyberNetwork)\n    public\n    onlyOwner\n    {\n        kyberNetwork = _kyberNetwork;\n    }\n\n    function getExpectedRate(ERC20 dst,uint amount)\n    public\n    view\n    returns (uint expectedRate, uint slippageRate)\n    {\n        return  kyberNetwork.getExpectedRate(ETH_TOKEN_ADDRESS, dst, amount);\n    }\n\n\n    event OnAddShares(bytes32 _symbol, ERC20[] _sources, uint8[] _shares);\n\n    function addShares(\n        bytes32 _symbol,\n        ERC20[] _sources,\n        uint8[] _shares\n    )\n    public\n    onlyOwner\n    {\n        require(_sources.length < 10);\n        require(_shares.length < 10);\n        require(_sources.length == _shares.length);\n\n        for (uint8 i = 0; i < symbols.length; i++) {\n            require(_symbol != symbols[i]);\n        }\n\n        for (i = 0; i < _sources.length; i++) {\n            require(_sources[i] != address(0));\n        }\n\n        uint8 sum = 0;\n        for (i = 0; i < _shares.length; i++) {\n            require(_shares[i] < 100 && _shares[i] > 0);\n            sum += _shares[i];\n        }\n        require(sum == 100);\n\n        symbols.push(_symbol);\n        for (i = 0; i < _shares.length; i++) {\n            shares[_symbol].push(Share(_sources[i],_shares[i]));\n        }\n        OnAddShares(_symbol, _sources, _shares);\n    }\n    // TODO: updateShares & deleteShares & getShares\n\n    event OnBuy(address indexed sender, bytes32 symbol, uint srcAmount, uint[] destAmounts);\n\n    function buy(bytes32 symbol)\n    public\n    payable\n    {\n        require(msg.value > 0);\n        var ps = shares[symbol];\n        require(ps.length != 0);\n\n        uint sum = 0;\n        uint expect = 0;\n        uint slippage = 0;\n        uint[] memory srcAmounts = new uint[](ps.length);\n        uint[] memory destAmounts = new uint[](ps.length);\n\n        for (uint8 i = 0; i < ps.length - 1; i++) {\n            var amount = (msg.value * ps[i].share) / 100;\n            require(amount > 0);\n            srcAmounts[i] = amount;\n            sum += amount;\n        }\n        srcAmounts[srcAmounts.length-1] = msg.value - sum;\n\n        for (i = 0; i < srcAmounts.length; i++) {\n\n            (expect, slippage) = kyberNetwork.getExpectedRate(ETH_TOKEN_ADDRESS, ps[i].source, srcAmounts[i]);\n            require(slippage > 0);\n\n            var destAmount = kyberNetwork.trade.value(srcAmounts[i])(\n                ETH_TOKEN_ADDRESS, // source\n                srcAmounts[i], // srcAmount\n                ps[i].source, // dest\n                msg.sender, // destAddress\n                2**256 - 1, // maxDestAmount\n                slippage, // minConversionRate\n                address(0) // throwOnFailure\n            );\n            require(destAmount > 0);\n            destAmounts[i] = destAmount;\n        }\n\n        OnBuy(msg.sender, symbol, msg.value, destAmounts);\n    }\n}\n",
  "sourcePath": "/Users/wangming/olympus/index-smart-contract/contracts/KyberAgent.sol",
  "compiler": {
    "name": "solc",
    "version": "0.4.18+commit.9cf6e910.Emscripten.clang"
  },
  "schemaVersion": "1.0.1",
  "updatedAt": "2018-02-02T16:11:19.833Z"
}